:101293002020CCE5D0CDB2E2C1BFD2C72020202090
:1012A300002020202020202020202020202020205B
:1012B3002000C9EDB8DF3A2025303364434D2020A8
:1012C30020202000CCE5D6D83A20253033642E25C3
:1012D3003032644B47202000CCE5D0CDD6B8CAFDD0
:1012E3003A2025302E3266200020202020C8A5C6B3
:1012F300A4CDEAB3C9202020200000000000000094
:0B1303000000000000000000000000DF
:1014A600040800000000040C000000000410000006
:0214B600000034
:040E55008E248F2533
:100E5900E4F526F527F528F529782A7C00FD7BFF9E
:100E69007A1279FDFE7F1112064AE525452470366E
:100E79007BFF7A127993F53FFD12137C7BFF7A127F
:100E890079A4E4F53F7D0112137C7BFF7A1279A4E2
:100E9900E4F53F7D0212137C7BFF7A1279A4E4F515
:100EA9003F7D0312137CE52564014524703BFE7FD9
:100EB90011FDFB7A00792A12080A753EFF753F1267
:100EC9007540B5AF0FAE0EAD0DAC0C1203578E4188
:100ED9008F427B007A00792A1208927B007A007986
:100EE9002AE4F53F7D0112137CE52564024524704F
:100EF90075FE7F11FDFB7A00792A12080AE47BE866
:100F09007A03F9F8AF0BAE0AAD09AC081207048EE3
:100F1900268F27E47BE87A03F9F8AF0BAE0AAD090F
:100F2900AC08120704AC00AD01AE02AF03E47B0AC2
:100F3900FAF9F81207048E288F29753EFF753F12BA
:100F49007540C78526418527428528438529447BE5
:100F5900007A00792A1208927B007A00792AE4F54E
:100F69003F7D0212137CE525640345247038FE7F1A
:100F790011FDFB7A00792A12080A753EFF753F12A6
:100F89007540DB8513448512438511428510417BE9
:100F9900007A00792A1208927B007A00792AE4F50E
:060FA9003F7D0312137CE2
:010FAF00221F
:100FB000E4F522F5231214C1121489E4FFFE120E87
:100FC000551213AA7522008F23E523452260F2E50E
:100FD000236401452270261214897BFF7A1279EC72
:100FE000E4F53F7D0312137C7FE87E0312134B7BF5
:100FF000FF7A1279A4E4F53F7D0312137CE52364A4
:1010000002452260030210C1F522F523120CA5A8A7
:1010100004A905AA06AB07E4FFFE7D487C43120045
:10102000118F0F8E0E8D0D8C0C7F017E00120E55D0
:101030001213AABF02D61212168F0B8E0A8D098CBC
:10104000087F027E00120E551213AABF02E8AF0FEE
:10105000AE0EAD0DAC0CE4FBFA79C8784212020F6B
:101060008F0F8E0E8D0D8C0CAF0BAE0AAD09AC0838
:10107000E4120319E4FBFA797A784412020FC004EF
:10108000C005C006C007AF0FAE0EAD0DAC0CA80476
:10109000A905AA06AB07120106A804A905AA06AB72
:1010A00007D007D006D005D00412020F8F138E127E
:1010B0008D118C107F037E00120E551213AABF02F1
:0A10C000FAE4FFFE120E55020FC104
:020006000022D6
:1014EF0000000000000000000000000000000000ED
:0114FF0022CA
:10134B00C3EF940AEE940050047C79800FC3EF94A2
:10135B0064EE940050047C7A80027C7BEF1FAA061B
:10136B0070011E4A600AE4FDEDC39C50EF0D80F83E
:01137B00224F
:10141F0000000000000000000000000000000000BD
:10142F0000000000000000000000000000000000AD
:04143F0000000000A9
:0214B800C10968
:1010CA00E4F52DF52CF52BF52AE58954F04401F5C4
:1010DA0089D2A9E4F58CF58AD2941214EFC294301D
:1010EA0095FDD28C2095FDC28C30090302117FAF89
:1010FA008CEFFEAD8A7C00E42DFDEC3EFCE412038D
:10110A001E7B297A5C79EF783F120106E4FBFA79B3
:10111A00C8784212020F8F2D8E2C8D2B8C2AE4FF59
:10112A00FE7D207C41AB2DAA2CA92BA82A1202AC49
:10113A005012AF2DAE2CAD2BAC2A7BCD7ACC79CC0C
:10114A0078BE8024E4FFFE7DA07C41AB2DAA2CA9A9
:10115A002BA82A1202AC501FAF2DAE2CAD2BAC2AF5
:10116A007BCD7ACC794C78BF1200158F2D8E2C8DC1
:0F117A002B8C2A8002C209AF2DAE2CAD2BAC2AD4
:011189002243
:100CA500E4F524F525F526F527F528F52978007CC2
:100CB500007D017BFF7A14791FFE7F2412064AE42A
:100CC500F524F5251210CAC004C005C006C007E505
:100CD50025AE247802C333CE33CED8F92400F5826D
:100CE50074003EF583D007D006D005D0041207C89E
:100CF5007F147E0012134B0525E52570020524C3DC
:100D05009409E5246480948040BAE4F524F52585AA
:100D15002426852527C3E5279409E5266480948044
:100D25004003020E35E525AE247802C333CE33CE1B
:100D3500D8F92400F58274003EF583E0FCA3E0FDBC
:100D4500A3E0FEA3E0FFC004C005C006C007E52779
:100D5500AE267802C333CE33CED8F92400F582749B
:100D6500003EF583E0F8A3E0F9A3E0FAA3E0FBD0A9
:100D750007D006D005D0041202AC4003020E27E5C9
:100D850025AE247802C333CE33CED8F92400F582BC
:100D950074003EF583E0FCA3E0FDA3E0FEA3E0FFC5
:100DA5001203578E288F29E527AE267802C333CE46
:100DB50033CED8F92400F58274003EF583E0FCA318
:100DC500E0FDA3E0FEA3E0FFC004C005C006C00728
:100DD500E525AE247802C333CE33CED8F92400F509
:100DE5008274003EF583D007D006D005D0041207E3
:100DF500C8AC28AD29EC12031EC004C005C006C04E
:100E050007E527AE267802C333CE33CED8F92400C2
:100E1500F58274003EF583D007D006D005D00412C4
:100E250007C80527E5276003020D1A0526020D1AD6
:100E35000525E52570020524640845246003020D97
:0F0E450014900010E0FCA3E0FDA3E0FEA3E0FF8B
:010E5400227B
:03000B00020003ED
:03000300D20932ED
:1014DC00C2A7D2A6D2A5120006E580339200C2A5FF
:0214EC00A2005C
:0114EE0022DB
:1013FA008F408C418D421214DC40FBC2A7C2A6C2A8
:10140A00A500008540800000D2A50000C2A5AF4219
:05141A00AE4102134B7E
:101443008F408C418D421214DC40FBD2A7C2A6C24E
:10145300A58540800000D2A50000C2A5AF42AE41E1
:0314630002134B26
:1014C1007D017C007F301213FA7D017C007F0112C7
:0B14D10013FA7D017C007F0C0213FA6F
:10146600EF70047F808013BF01047F90800CBF0261
:10147600047F888005BF03027F98EF2DFFE4FDFC03
:031486000213FA54
:10137C008B3B8A3C893DAF05AD3F121466AB3BAA53
:10138C003CA93D120670FF60147D017C00121443D1
:0E139C007401253DF53DE4353CF53C80E02232
:0614BA0004140000000014
:10130E00D2A0000000C2A17F007E007D007C0020E4
:10131E00A0FDE4FBD2A178011207B5C2A130A00D49
:10132E00EF2401FFE43EFEE43DFDE43CFC0BBB1864
:0C133E00E3D2A1ED6480FD000000C2A11C
:01134A002280
:1014890012130E8F178E168D158C14E47B64FAF9DE
:0D149900F81207048F178E168D158C142283
:1012160012130E8F278E268D258C24E47B64FAF913
:10122600F81207048F278E268D258C24AF17AE164D
:10123600AD15AC14AB27AA26A925A824D31207A45A
:101246004045E5279517F527E5269516F526E52564
:101256009515F525E5249514F524AF27AE26AD257D
:10126600FCE41203197B9E7A5E791D784012010612
:101276007BCD7ACC794C783D1200151203578F2717
:0C1286008E268D258C2422E4FFFEFDFC4A
:011292002239
:1013AA0020B6107F0A7E0012134B20B60630B6FD17
:1013BA007F012220B7107F0A7E0012134B20B70646
:0913CA0030B7FD7F02227F0022F2
:10000E000203C3E86480F8E933E83360110460F05A
:10001E00ED33EC337009E8FCE9FDEAFEEBFF220458
:10002E0060DED3EB9FEA9EE99DE8C2E78CF0C2F753
:10003E0095F0400CE8CCF8E9CDF9EACEFAEBCFFB1F
:10004E0012038E85D0F05804700320D5B3E80470E7
:10005E00075002B2D50203CD92D5EC0460F7E4CC82
:10006E00C0E0C398F8603B94186008400DD0E0FBE8
:10007E000203A5E4FBFAC9FC8028E830E406E4C9D3
:10008E00FBE4CAFCE830E305E4C9CACBFCE854073C
:10009E006010F8C3E913F9EA13FAEB13FBEC13FC47
:1000AE00D8F130F52FC3E49CFCEF9BFFEE9AFEEDEA
:1000BE0099FDD0E0FBEF4E4D4C701222DB03020394
:1000CE00CAEC2CFCEF33FFEE33FEED33FDED30E7E3
:1000DE00EB0203A5EF2BFFEE3AFEED39FDD0E0FB70
:1000EE0050130BBB00030203CDED13FDEE13FEEF19
:0800FE0013FFEC13FC0203A543
:10010600EC4D6011E8497017ED33EC3304600DE4F3
:10011600FCFFFEFD22E933E8330470F80203C31244
:10012600038E58046009E4CC248150062850090245
:1001360003CD2840030203CAC0E0EB4A7044B980ED
:1001460006D0E0FB0203B9EF4E701CBD8008EBFF42
:10015600EAFEE9FD80EBE98DF0A4FEE5F00201EF91
:10016600E9CDF9EAFEEBFFEF89F0A4FCE5F0CE89D4
:10017600F0A42EFFE435F0CD89F0A42DFEE435F091
:100186008067EF4E7005BD80D780C3EF8BF0A4ACBF
:10019600F0EE8BF0A42CFCE435F0F8EF8AF0A42CFA
:1001A600E5F038FCE433CB8DF0A42CFCE5F03BF80D
:1001B600EE8AF0A42CFCE5F038F8E433CF89F0A4FD
:1001C6002CFCE5F038CF3400CE89F0A42FFFE5F003
:1001D6003EFEE433C98DF0A42EFEE5F039CD8AF05B
:1001E600A42FFFE5F03EFEE43DFD33D0E0FB5007D3
:1001F6000BBB000F0203CDEC2CFCEF33FFEE33FEFE
:06020600ED33FD0203A52B
:10020C000203CDEC5D046005E8590470030203C3DE
:10021C0012038E580460F6EC4860F2EC7004FDFE9C
:10022C00FF22C860DB2481C85009C39860025006C5
:10023C000203CA9850CAF582E9294B4A7005AB8271
:10024C000203B975F0007C1A7880C3EF9BEE9AED2F
:10025C0099400DC3EF9BFFEE9AFEED99FDE842F03D
:10026C00DC23ACF0D0E0FFD0E0FED0E0FDAB822090
:10027C00E7101BEB60BAEC2CFCEF33FFEE33FEED1A
:10028C0033FD0203A5E803F830E705C0F075F00074
:10029C00EF2FFFEE33FEED33FD40B830E7C280AAFE
:1002AC0074F8CC6480CCC86480C8F582046043C305
:1002BC00EB9FF5F0EA9E42F0E99D42F0E89C45F098
:1002CC0060305018E5825FFFE582F42B5582FB50BD
:1002DC00210ABA001D09B90019088016E5825BFBDA
:1002EC00E582F42F5582FF50090EBE00050DBD00AE
:1002FC00010CC3EB9FF5F0EA9E42F0E99D42F0E859
:0D030C009C45F06007CC4820E701B3EC22CF
:1003190075F020800E75F010800575F0087D007E5F
:10032900007F003392D530D503120796EC33401085
:10033900EF33FFEE33FEED33FDEC33FCD5F0ED2268
:0E034900E5F0247EA2D513CC92E7CDCEFF22A4
:10035700EDD2E7CD33EC3392D524814006E4FFFE9E
:10036700FDFC22FCE4CFCECDCC24E0501174FF80FD
:10037700EDC3CC13CCCD13CDCE13CECF13CF04709A
:07038700F030D5DE020796FD
:10083600E552243EF8E6055222783B300702783E20
:10084600E475F0011207D40206702000EB7F2ED269
:10085600008018EF540F2490D43440D4FF30040B9A
:10086600EF24BFB41A0050032461FFE5536002155C
:10087600530556E5567002055530070D783BE4756D
:10088600F0011207D4EF0206B60213D37403D2079F
:100896008003E4C207F5528B3B8A3C893DE4F5535D
:1008A600F555F556E55360077F2012087180F575FA
:1008B60054FFC201C200C202C203C205C206C20878
:1008C60012083FFF700D3007057F00120882AF56F1
:1008D600AE5522B4255FC2D5C20412083FFF24D00C
:1008E600B40A00501A75F00A785330D50508B6FFD9
:1008F6000106C6A426F620D5047002D20380D924A8
:10090600CFB41A00EF5004C2E5D204020B6FD20135
:1009160080C6D20080C0D20280BCD2D580BAD205B1
:1009260080B47F201208712002077401B55300407D
:10093600F1120836FF1208710208AAD208D2068000
:1009460095120836FB120836FA120836F94A4B7029
:100956000679667A0C7BFF20022EE553602A7E001C
:100966008E8275830012068960060EEE655470F05D
:10097600C2D5EBC0E0EAC0E0E9C0E0EE120BCFD092
:10098600E0F9D0E0FAD0E0FB120670FF60AAEBC0F7
:10099600E0EAC0E0E9C0E0120871D0E02401F9D035
:1009A600E03400FAD0E0FBE5540460DCD554D9808D
:1009B60087D20280A2120BB260F7E55470010412CE
:1009C60003D8A954600DE554600914F554120C5966
:1009D600EF60F3EA30E702F404C3995077EAF425AE
:1009E600540430E701E404F554800D120BB260C1E3
:1009F600EA055425541203D8EA7851F630E701E4A3
:100A0600255404D5540420050114120BCFE4C0E08C
:100A1600120C597851E6601320E70714F6120859AC
:100A2600802204F6D0E014C0E07F00120859E55495
:100A360060071208501554800B300503120850D079
:100A4600E00208AAD0E00480C5120BB260A0E5540B
:100A5600041203D87851EAF6E55420050260010431
:050A66002404120BCF77
:100A6B0074FF04C0E0120C59120859E5542005021A
:100A7B006003120850D0E0B554E87F451208637844
:100A8B0051E67F2B30E7047F2DF404C0E012087190
:100A9B00D0E075F00A84C0F012085AD0E012085A60
:100AAB000208AA791080027908C206C2088008D20F
:100ABB00D5790A8004790AC2D5E554047002F5543D
:100ACB00E4FAFDFEFF120836FC7B08200113120826
:100ADB0036FD7B1030000A120836FE120836FF7BFB
:100AEB0020EC3382D592D55013C3E43000069FFF20
:100AFB00E49EFEE42001039DFDE49CFCE4CBF8C2E4
:100B0B0001EC700CCFCECDCCE824F8F870F3801745
:100B1B00C3EF33FFEE33FEED33FDEC33FCEB33FB76
:100B2B00994002FB0FD8E9EB300105F8D0E0C4483F
:100B3B00B201C0E00AEC4D4E4F78207B0070C2EA48
:100B4B00B5540040BCC0E0120BD1D0F0D0E0200176
:100B5B0004C4C0E0C4B201C0F012085AD0F0D5F002
:100B6B00EB0208AA1207E40947530AAE5809184CBE
:100B7B000914420AB24F0ABA440ABA49092D430A68
:100B8B00C05509F1460A4F4509BB470C8650091C55
:100B9B002D09202E09432B0924230941200C6F2AF0
:100BAB0008DC480000093BE554B4FF0375540612FA
:100BBB000836FC120836FD120836FE120836FF788E
:100BCB004A020407790AA2D5200314300509B9108B
:100BDB00020404B9080104A2D52006025001042026
:100BEB0002689202B553005034C0E07F20300319E5
:100BFB007F30A20272067205500F120C28C202C27D
:100C0B0006C205C2087F30800F300503E9C0E01231
:100C1B000871300503D0E0F9D0E0B553CC3005179F
:100C2B007F30B9100C1208717F583004077F788021
:100C3B0003B908031208713002057F2D0208717F7A
:100C4B00202008F87F2B2006F322920280CF7F0012
:100C5B00B407005005244AF8E6FF22286E756C6C29
:100C6B002900D2011208363001F8C201785330D571
:100C7B000108F60208DC2D504349581208362403AC
:100C8B00B405004001E4900C8193120862743A128F
:0A0C9B000862D203755304020AAE8A
:10038E00E9D2E7C933E833F892D5EDD2E7CD33ECB5
:07039E0033FC5002B2D5222E
:1003A500EC30E7100FBF000C0EBE00080DBD0004B9
:1003B5000BEB6014A2D5EB13FCED92E7FD2274FF65
:1003C500FCFDFEFF22E480F8A2D574FF13FC7D80BE
:0303D500E480EFD2
:1003D800F920E72824F950037907E4F42402FB18EC
:1003E800DBFDE624FB5014E9600DE4F618E604F69C
:0F03F800B40A08E4F6D9F57401F60A22C2D52238
:10040700ED33EC3392D5FA602AB4FF33EDC2E77BC4
:10041700FF60067A04792CE4227A04793520D50422
:100427007A047930224E614E002B494E46002D4901
:100437004E4600E47A08F608DAFC7B00740722E8E7
:10044700C0E0ECC0E0EDC0E0EEC0E0EFC0E0EA7570
:10045700F010A4CAABF075F04DA42BFBE435F0FC0B
:10046700EA2410FAEB34C5FBEC34D9FCEDC2E7FF04
:1004770075F056A4F42411C5F0F434C58FF0A42AFE
:10048700E5F03BE43CF620E71412053AD0E0FFD054
:10049700E0FED0E0FDD0E0FC12020F8014F404125D
:1004A700053AD0E0FFD0E0FED0E0FDD0E0FC12013D
:1004B70006D0E0F8E6FAEDD2E7CD33EC332482FB41
:1004C700E4C3CF33CFCE33CECD33CD33DBF37B078E
:1004D70075F00A846004F6081B0AE5F0F6088FF049
:1004E700740AA4FFACF08EF0740AA42CFEACF05092
:1004F700010C8DF0740AA42CFDE435F0F608DBDE60
:0305070074072254
:10050A003F8000004120000042C80000447A0000F9
:10051A00461C400047C35000497424004B1896807B
:10052A004CBEBC205A0E1BCA6753C21C749DC5AE72
:10053A00FB60065407601C2323120568EB543860DD
:10054A0009120554120563120106ECF8EDF9EEFAE8
:10055A00EFCB22EB12056380F1543803241C90057B
:10056A000AFE93FC0EEE93FD0EEE930ECE93FF223F
:0300000002118A60
:0C118A00787FE4F6D8FD7581560211D183
:10057A00E709F608DFFA8046E709F208DFFA803E63
:10058A0088828C83E709F0A3DFFA8032E309F60850
:10059A00DFFA8078E309F208DFFA807088828C83B8
:1005AA00E309F0A3DFFA806489828A83E0A3F6086C
:1005BA00DFFA805889828A83E0A3F208DFFA804C46
:1005CA0080D280FA80C680D4806980F2803380101D
:1005DA0080A680EA809A80A880DA80E280CA803386
:1005EA0089828A83ECFAE493A3C8C582C8CCC583FE
:1005FA00CCF0A3C8C582C8CCC583CCDFE9DEE780CE
:10060A000D89828A83E493A3F608DFF9ECFAA9F04C
:10061A00EDFB2289828A83ECFAE0A3C8C582C8CCA2
:10062A00C583CCF0A3C8C582C8CCC583CCDFEADEBB
:10063A00E880DB89828A83E493A3F208DFF980CC1D
:10064A0088F0EF60010E4E60C388F0ED2402B40416
:10065A000050B9F582EB2402B4040050AF232345BD
:06066A0082239005CA7313
:10067000BB010689828A83E0225002E722BBFE0288
:09068000E32289828A83E49322BB
:10068900BB010CE58229F582E5833AF583E0225026
:1006990006E92582F8E622BBFE06E92582F8E22270
:0D06A900E58229F582E5833AF583E493228A
:1006B600BB010689828A83F0225002F722BBFE0123
:0206C600F3221D
:1006C80075F008758200EF2FFFEE33FECD33CDCCE9
:1006D80033CCC58233C5829BED9AEC99E58298406C
:1006E8000CF582EE9BFEED9AFDEC99FC0FD5F0D649
:1006F800E4CEFBE4CDFAE4CCF9A88222B800C1B973
:100708000059BA002DEC8BF084CFCECDFCE5F0CBB0
:10071800F97818EF2FFFEE33FEED33FDEC33FCEBE9
:1007280033FB10D703994004EB99FB0FD8E5E4F9A4
:10073800FA227818EF2FFFEE33FEED33FDEC33FC91
:10074800C933C910D7059BE99A4007EC9BFCE99A85
:10075800F90FD8E0E4C9FAE4CCFB2275F010EF2FCA
:10076800FFEE33FEED33FDCC33CCC833C810D707CA
:100778009BEC9AE899400AED9BFDEC9AFCE899F805
:0E0788000FD5F0DAE4CDFBE4CCFAE4C8F92298
:0E079600C3E49FFFE49EFEE49DFDE49CFC2274
:1007A400EB9FF5F0EA9E42F0E99D42F0E89C45F0AB
:0107B4002222
:1007B500E8600FEFC333FFEE33FEED33FDEC33FCA2
:0307C500D8F12246
:0C07C800ECF0A3EDF0A3EEF0A3EFF022A4
:1007D400FAE6FB0808E6F925F0F618E6CA3AF62226
:1007E400D083D082F8E4937012740193700DA3A3A4
:1007F40093F8740193F5828883E4737402936860B8
:06080400EFA3A3A380DFB7
:1013D300EFB40A07740D1213DE740A309811A8993A
:1013E300B8130CC2983098FDA899C298B811F6307A
:0713F30099FDC299F5992252
:10080A00EF4E6012EF60010EEDBB010B89828A8305
:10081A00F0A3DFFCDEFA2289F05007F709DFFCA912
:0C082A00F022BBFEFCF309DFFCA9F02269
:10119600020FB0E493A3F8E493A34003F68001F2B0
:1011A60008DFF48029E493A3F85407240CC8C3335A
:1011B600C4540F4420C8834004F456800146F6DF29
:1011C600E4800B01020408102040809014A6E47EFF
:1011D600019360BCA3FF543F30E509541FFEE4931E
:1011E600A360010ECF54C025E060A840B8E493A3E5
:1011F600FAE493A3F8E493A3C8C582C8CAC583CA10
:10120600F0A3C8C582C8CAC583CADFE9DEE780BEC7
:0114C000002B
:00000001FF
